:020000040800F2
:1000000058240124B1020008AF480008E14000086C
:10001000AD480008BB040008895500080000000036
:10002000000000000000000000000000454C000837
:100030000109000800000000B1480008474C000812
:10004000CB020008CB020008CB020008CB0200085C
:10005000CB020008CB020008CB020008CB0200084C
:10006000CB020008CB020008CB020008BD04000848
:10007000CB020008CB020008CB020008CB0200082C
:10008000CB020008CB020008CB020008CB0200081C
:10009000CB020008CB020008CB020008CB0200080C
:1000A000CB020008054E0008CB020008CB02000876
:1000B000CB020008CB020008CB020008CB020008EC
:1000C000CB020008CB020008CB020008F54A00086A
:1000D000CB020008CB020008CB020008CB020008CC
:1000E000CB020008CB02000800000000CB02000891
:1000F000CB020008CB020008CB020008CB020008AC
:10010000CB020008CB020008CB020008CB0200089B
:10011000CB020008CB020008CB020008CB0200088B
:10012000CB020008CB020008CB020008CB0200087B
:10013000CB020008CB020008CB020008CB0200086B
:1001400000000000000000000000000000000000AF
:10015000CB020008CB020008CB020008CB0200084B
:10016000CB020008CB020008CB020008CB0200083B
:10017000CB020008CB020008CB020008CB0200082B
:10018000CB020008CB020008CB020008CB0200081B
:10019000CB020008CB020008CB020008CB0200080B
:1001A000CB020008CB020008CB020008CB020008FB
:1001B000CB020008CB020008CB020008CB020008EB
:1001C000CB020008CB020008CB020008CB020008DB
:1001D000CB020008CB020008CB020008CB020008CB
:1001E000CB020008CB020008CB020008CB020008BB
:1001F000CB020008CB020008CB020008CB020008AB
:10020000CB020008CB020008CB020008CB0200089A
:10021000CB020008CB020008CB020008CB0200088A
:10022000CB020008CB020008CB020008000000004F
:10023000CB020008CB02000800000000CB0200083F
:10024000CB020008CB020008CB020008CB0200085A
:10025000CB020008CB020008CB020008CB0200084A
:10026000CB020008CB020008CB020008CB0200083A
:10027000CB020008CB020008CB02000800000000FF
:10028000CB020008CB020008CB02000800000000EF
:1002900000000000CB020008DFF810D000F0D0F81A
:1002A00000480047A92E0208AFF30080582401241B
:1002B0000648804706480047FEE7FEE7FEE7FEE700
:1002C000FEE7FEE7FEE7FEE7FEE7FEE7294D000852
:1002D000990200082DE9F05F0546002092469B46F2
:1002E00088460646814640241BE02846414647464C
:1002F000224600F095F853465A46C01A914110D351
:1003000011461846224600F07CF82D1A67EB0108CA
:100310004F4622460120002100F073F817EB000938
:100320004E41201EA4F10104DFDC484631462A4636
:100330004346BDE8F09F10B5431A934209D2831893
:10034000881803E010F8011D03F8011D521EF9D2B0
:1003500010BD40EA01039B0703D009E008C9121F42
:1003600008C0042AFAD203E011F8013B00F8013B6F
:10037000521EF9D210BDD2B201E000F8012B491E85
:10038000FBD270470022F6E710B513460A46044632
:100390001946FFF7F0FF204610BD421C10F8011B64
:1003A0000029FBD1801A704710B5002200E0521CD2
:1003B000835C8C5CA34201D1002BF8D1D8B2E1B2AE
:1003C000401A10BD034611F8012B00F8012B002A3A
:1003D000F9D11846704730B50B460146002020225F
:1003E000012409E021FA02F59D4205D303FA02F542
:1003F000491B04FA02F52844151EA2F10102F1DCA2
:1004000030BD202A04DB203A00FA02F100207047B8
:100410009140C2F1200320FA03F319439040704742
:10042000202A04DB203A21FA02F00021704721FA49
:1004300002F3D040C2F120029140084319467047B0
:10044000064C074D06E0E06840F0010394E8070021
:1004500098471034AC42F6D3FFF722FFA8110408E6
:10046000C811040870B58C1810F8015B15F007036B
:1004700001D110F8013B2A1106D110F8012B03E03D
:1004800010F8016B01F8016B5B1EF9D12B0705D445
:100490000023521E0DD401F8013BFAE710F8013B8E
:1004A000CB1A921C03E013F8015B01F8015B521EAA
:1004B000F9D5A142D8D3002070BDFEE7014800F075
:1004C00023BC000038030024294A016891423AD035
:1004D000274A1832914236D0254A3032914232D0E2
:1004E000234A483291422ED0214A603291422AD08A
:1004F0001F4A7832914226D01D4A9032914222D032
:100500001B4AA83291421ED01A4A91421BD0194A66
:100510001832914217D0174A3032914213D0154AFF
:10052000483291420FD0134A603291420BD0114AA7
:100530007832914207D00F4A9032914203D00D4A4F
:10054000A832914211D1CAB21823103AB2FBF3F289
:100550006FF30901032A02F00703074AD25CC26560
:1005600000D9091D81650846704721F0FF01F9E7B0
:1005700010000240100402405277020830B5224AAF
:10058000012301689142CAB21BD01F4C1434A1420E
:1005900017D01D4C2834A14213D01B4C3C34A1422F
:1005A0000FD0194C5034A1420BD0174C6434A142E7
:1005B00007D0154C7834A14203D0134C8C34A1429F
:1005C0000CD11421114C083AB2FBF1F10F4A8032E0
:1005D00001F01F0504EB8101AB4010E00C4D182425
:1005E000103A0D44B2FBF4F1A82D00D80831094AA5
:1005F00001F01F0402EB8101064AA3408032603003
:1006000080E80E0030BD000008540258005802581F
:10061000F0FBFDBF0008024010B50279531E072B06
:100620002DD8174C0168A1421BD0154C1434A1429F
:1006300017D0134C2834A14213D0114C3C34A142A2
:100640000FD00F4C5034A1420BD00D4C6434A1425A
:1006500007D00B4C7834A14203D0094C8C34A14212
:1006600003D10849074C443102E00749064C4431A4
:1006700004EB8202C0E91B2101219940416710BDB2
:1006800008540258FC580258FC08024010B583690F
:100690004FF0C074826A0146002053B1B3F5005F89
:1006A00015D072B1012A0CD0022A0AD0032A09D12E
:1006B00004E01AB1012A06D0022A03D1C96AC9018D
:1006C00000D5012010BDC96AA142FAD010BD002A90
:1006D000F7D0012AF2D0022AF3D0032AF3D010BDBA
:1006E0002DE9F04F804E804FDFF8FC911836DFF88F
:1006F000F8A148370468856D0AF1300ADFF8ECB1DB
:100700004C45DFF8ECC1DFF8ECE16DD0B4426BD0C2
:10071000544569D0BC4267D0DFF8D081A8F11808F1
:10072000444561D05C455FD064455DD074455BD085
:10073000DFF8C481444557D0DFF8BC8108F11808C0
:10074000444551D0DFF8B08108F1300844454BD022
:10075000DFF8A48108F14808444545D0DFF89881C6
:1007600008F1600844453FD0DFF88C8108F1780833
:10077000444539D0DFF8808108F19008444533D0F2
:10078000DFF8748108F1A80844452DD0DFF86C81AA
:10079000444529D0DFF8648108F11408444523D08A
:1007A000DFF8588108F1280844451DD0DFF84C8156
:1007B00008F13C08444517D0DFF8408108F15008A3
:1007C000444511D0DFF8348108F1640844450BD06A
:1007D000DFF8288108F17808444505D0DFF81C814E
:1007E00008F18C08444509D1D0E91948C4F80480BF
:1007F000C46E1CB1D0E91C48C4F8048004684C45A0
:100800002ED0B4422CD054452AD0BC4228D0374EEA
:10081000183EB44224D05C4522D0644520D07445B3
:100820001ED0354EB4421BD0334E1836B44217D0CA
:10083000314E3036B44213D02F4E4836B4420FD02A
:100840002D4E6036B4420BD02B4E7836B44207D0D2
:10085000294E9036B44203D0274EA836B44215D163
:1008600090F85C603F2406F01F06B440AC6004685A
:10087000256825F4802525602EE09A600068C16017
:10088000BDE8F08F99600068C260F9E71B4EB44282
:100890001BD01A4E1436B44217D0184E2836B44224
:1008A00013D0164E3C36B4420FD0144E5036B442DC
:1008B0000BD0124E6436B44207D0104E7836B44294
:1008C00003D00E4E8C36B442DAD190F85C6001242D
:1008D00006F01F06B4406C60046863608368402BB8
:1008E0000368CFD1C9E70000100002408800024031
:1008F000A0000240B8000240100402400854025810
:10090000704772B6FEE70000F0B590F86020012A4B
:1009100022D0C1EBC102012780F86070022380F869
:10092000613000EB8202284D138F168EB2F83CC066
:10093000D46A1B05283244EA064643EA4C530A2C83
:1009400046EA03060AD0092C08D0137B46EA036363
:1009500049B10B2C1AD01DE00220F0BDD36803F082
:100960007F433343F4E701684C6AAC431C434C6259
:10097000016813688B6151680A2901D009291BD1CC
:10098000D168026821F07F41916215E0118B0F4D13
:1009900043EA81430168CC69AC431C43CC610168E4
:1009A00013680B6151680A2901D0092904D1D16863
:1009B000026821F07F411162002180F8617080F8A7
:1009C00060100846F0BD00000F0033FF0F003FFF2E
:1009D0002DE9F041040004D094F86100002518B11D
:1009E00007E00120BDE8F081204684F8605000F067
:1009F00033F8184E022084F861000123D4E9001076
:100A0000D4F81CC040F207120F6840EA0C003740CF
:100A1000384308602068A769A168466B394396434C
:100A2000314341632068E268016C6FF30F011143A9
:100A300001642068218AA28A466B090541EA425175
:100A400026F4401211434163656684F8613000204A
:100A5000C8E70000BFFFF8FF08B5006806498842F4
:100A600008D10648016841F010010160006800F0FB
:100A70001000009008BD000000100052D44402583D
:100A80002DE9F05F28B190F83510022904D08021BB
:100A900041650120BDE8F09F904C904B0168183CE7
:100AA00018338E4ADFF83C92A1428D4CDFF838E2D1
:100AB0008E4FDFF83CB2DFF83CA28F4D8F4E31D025
:100AC00091422FD099422DD0A1422BD0494529D017
:100AD000714527D0B94225D0DFF810C20CF1180CAF
:100AE00061451FD0DFF808C2ACF1600C614519D038
:100AF000DFF8FCC1ACF1480C614513D0DFF8F0C160
:100B0000ACF1300C61450DD0DFF8E4C1ACF1180C4C
:100B1000614507D0594505D0514503D0A94201D0C0
:100B2000B1422CD1DFF8B4C14FF0040880F8358011
:100B3000ACF1180C61451DD091421BD0994219D0DF
:100B4000A14217D0494515D0714513D0B94211D0F3
:100B50006648183081420DD065486038814209D01E
:100B600063484838814205D061483038814201D01D
:100B70005F481838086820F001000860ABE0D1F841
:100B800000C02CF00E08DFF854C1C1F80080ACF1B1
:100B9000180C0168614527D0914225D0994223D095
:100BA000A14221D049451FD071451DD0B9421BD06B
:100BB000DFF838C10CF1180C614515D0DFF830C1F1
:100BC000ACF1600C61450FD0DFF824C1ACF1480CEA
:100BD000614509D0DFF818C1ACF1300C614503D094
:100BE000DFF80CC1ACF1180CD1F800C02CF0010CEE
:100BF000C1F800C0DFF8E4804FF0010C0168A8F1F3
:100C00001808414546D0914244D0994242D0A14271
:100C100040D049453ED071453CD0B9423AD0334AE4
:100C20001832914236D0324A603A914232D0304A3C
:100C3000483A91422ED02E4A303A91422AD02C4A3C
:100C4000183A914226D0594524D0514522D0A94284
:100C500020D0B1421ED02A4A91421BD0284A1432D9
:100C6000914217D0264A2832914213D0244A3C326E
:100C700091420FD0224A503291420BD0204A643226
:100C8000914207D01E4A7832914203D01C4A8C32DE
:100C9000914218D1016E0A6822F480720A6090F8BD
:100CA0005C20816D02F01F020CFA02F24A60D0E96A
:100CB00019124A60C16E31B10A6822F480720A606A
:100CC000D0E91C124A600022016D80F835C080F81E
:100CD000342001B188470020DCE6000028000240F3
:100CE000580002407000024088000240A00002400C
:100CF0007004024088040240A0040240B80402408C
:100D000008540258406D70472DE9FC5F0446F74EC9
:100D10000020DFF8D88300904FF41652F44808F111
:100D20001808A56DDFF8C493DFF8C0A3016809F1C6
:100D3000300920680AF1480AB1FBF2F1B042019192
:100D40002F68D5F800C0DFF8ACB335D041468842F3
:100D500032D0484530D050452ED058452CD0E549AA
:100D60001831884228D0E3493031884224D0E14903
:100D70004831884220D0E04988421DD0DE491831F0
:100D8000884219D0DC493031884215D0DA494831DF
:100D9000884211D0DFF860E30EF1600E70450BD091
:100DA000D54A7832904207D0D34B9033984203D043
:100DB000D149A83188427DD194F85C20082102F005
:100DC0001F0201FA02F23A424AD0B04232D0404504
:100DD00030D048452ED050452CD058452AD0C54A51
:100DE0001832904226D0C34A3032904222D0C14AB3
:100DF000483290421ED0C04A90421BD0BE4A1832A0
:100E0000904217D0BC4A3032904213D0BA4A48328E
:100E100090420FD0B84A603290420BD0B64A783236
:100E2000904207D0B44A9032904203D0B24AA832DE
:100E3000904203D1026802F0040202E0026802F06C
:100E400008026AB1026822F00402026094F85C00B1
:100E500000F01F008140A960606D40F001006065F6
:100E600094F85C00012100F01F008140394240D01D
:100E70002068B04234D0404532D0484530D050454B
:100E80002ED058452CD09B4A1832904228D0994AEF
:100E90003032904224D0974A4832904220D0964A2D
:100EA00090421DD0944A1832904219D0924A303262
:100EB000904200E0AFE113D08F4A483290420FD009
:100EC0008D4A603290420BD08B4A7832904207D0E4
:100ED000894A9032904203D0874AA83290427DD10D
:100EE000406910F0800F04D0A960606D40F00200EE
:100EF000606594F85C00042100F01F0081403942D5
:100F00003ED02068B04232D0404530D048452ED047
:100F100050452CD058452AD0764A1832904226D0D7
:100F2000744A3032904222D0724A483290421ED0E7
:100F3000714A90421BD0704A1832904217D06E4AC4
:100F40003032904213D06C4A483290420FD06A4AF5
:100F5000603290420BD0684A7832904207D0664A9D
:100F60009032904203D0644AA83290424ED1006839
:100F700010F0020F04D0A960606D40F004006065BD
:100F800094F85C00102100F01F008140394258D0D5
:100F90002068B04234D0404532D0484530D050452A
:100FA0002ED058452CD0534A1832904228D0514A5E
:100FB0003032904224D04F4A4832904220D04E4A9C
:100FC00090421DD04C4A1832904219D04A4A3032D1
:100FD000904215D0484A4832904200E014E00FD0C9
:100FE000454A603290420BD0434A7832904207D053
:100FF000414A9032904203D03F4AA832904207D1F2
:10100000006800F0080006E0006872E70068B7E7D3
:10101000006800F00400A0B1A960206801684903DD
:1010200004D50068000308D5A16C07E00168C90574
:1010300003D4016821F008010160216C09B1204648
:10104000884794F85C00202100F01F00814039425D
:1010500079D02068B04232D0404530D048452ED0BB
:1010600050452CD058452AD0224A1832904226D0DA
:10107000204A3032904222D01E4A483290421ED03E
:101080001D4A90421BD01C4A1832904217D01A4A6F
:101090003032904213D0184A483290420FD0164A4C
:1010A000603290420BD0144A7832904207D0124AF4
:1010B0009032904203D0104AA832904203D1006887
:1010C00000F0100002E0006800F00200B0B3A96078
:1010D00094F835000428206801680FD049037ED5B4
:1010E000006800032BD4616C2AE00000100002406D
:1010F0000C000024700002401004024021F0160190
:1011000001602068416921F080014161206C08B9CB
:10111000A06C20B12068016821F00801016094F8FA
:101120005C303F21012003F01F0300229940A96099
:1011300084F8350084F83420216D65E003E0E16B2C
:1011400009B120468847606D00287DD0606DC007DA
:1011500059D02068042184F83510B0422BD0404586
:1011600029D0484527D0504525D0584523D09D4902
:10117000884220D09B49183188421CD0994930318F
:10118000884218D09849884215D09749183188422A
:1011900011D09549303188420DD093494831884269
:1011A00009D091496031884205D08F497831884211
:1011B00001D08D499031016821F001010160206862
:1011C0000099019A491C0091914202D80168C9070F
:1011D000F6D10068C00710D003200FE0FFE70168D8
:1011E000C905ACD403680121002223F01003036079
:1011F00084F8351084F83420A1E7012084F8350004
:10120000002084F83400E16C00291DD002B0204693
:10121000BDE8F05F0847754988421DD07349143115
:10122000884219D071492831884215D06F493C3124
:10123000884211D06D49503188420DD06B496431DC
:10124000884209D0694900E084E07831884203D0BF
:1012500066498C3188427DD194F85C80042701680E
:1012600008F01F0807FA08F717EA0C0F009746D096
:101270004F0744D500980F04686003D5C8033CD4D9
:10128000A16CC1E7880638D42068B0422DD05549FA
:101290006039884229D0484527D0504525D0584547
:1012A00023D05049884220D04E49183188421CD062
:1012B0004C493031884218D04B49884215D04A49B0
:1012C0001831884211D04849303188420DD0464902
:1012D0004831884209D0704507D0904205D09842E5
:1012E00003D04149A831884203D1016821F00801A7
:1012F00002E0016821F004010160216C84E702270B
:1013000007FA08F717EA0C0F00974ED08F074CD555
:1013100000980F04686003D5C80344D4616C73E778
:10132000880640D42068B0422FD02E4960398842C8
:101330002BD0484529D0504527D0584525D029499C
:10134000884222D02749183188421ED025493031A1
:10135000884200E044E018D02349884215D0224951
:101360001831884211D02049303188420DD01E49B1
:101370004831884209D0704507D0904205D0984244
:1013800003D01949A831884203D1016821F0140122
:1013900002E0016821F00A010160012184F83510A2
:1013A000002084F83400E16B2EE7082202FA08F2EC
:1013B00012EA0C0F14D0090712D5016821F00E01B2
:1013C000016094F85C100120002201F01F0100FA76
:1013D00001F16960606584F8350084F8342012E713
:1013E000BDE8FC9F880002401004024008540258E7
:1013F0002DE9F05F044600F05FFC002C07467DD02D
:10140000E34E022120684FF00308DFF888934FF085
:101410000005DFF884A3B042DFF880B334D0DC4AA3
:101420001832904230D048452ED050452CD05845E7
:101430002AD0DA4A1832904226D0D84A3032904226
:1014400022D0D64A483290421ED0D54A90421BD074
:10145000D34A1832904217D0D14A3032904213D03A
:10146000CF4A483290420FD0CD4A603290420BD0E2
:10147000CB4A7832904207D0C94A9032904203D08A
:10148000C74AA83290427DD184F83510B04284F822
:1014900034502ED0BE49183188422AD0484528D031
:1014A000504526D0584524D0BC491831884220D018
:1014B000BA49303188421CD0B8494831884218D0E6
:1014C000B749884215D0B6491831884211D0B4497D
:1014D000303188420DD0B2494831884209D0B049F4
:1014E0006031884205D0AE497831884201D0AC499C
:1014F0009031016821F00101016008E027E100BF9F
:1015000000F0DAFBC01B052801D920211CE120686E
:101510000068C007F4D104F108002168D4E9053C53
:101520008E4685C809681043D4E907281F43636ABB
:1015300038439C4F40EA0C001043394040EA080011
:10154000042B40EA010003D1D4E90B1211430843F4
:10155000954909686FF30F01B1F1005F0FD361681E
:10156000A1F12902052A08D9163A032A05D9083A11
:10157000012A02D94F39032901D840F48010CEF84E
:10158000000000E023E02068676A4069042F20F033
:10159000070047EA00070DD1D4E90A01074349B122
:1015A0002046FFF773F828B140206065012184F8D8
:1015B0003510CCE0206847612046FEF785FF94F89F
:1015C0005C203F2102F01F029140816054E0774A85
:1015D00090421BD0754B1433984217D0734B28336D
:1015E000984213D0714B3C3398420FD06F4B50331D
:1015F00098420BD06D4B6433984207D06B4B7833D5
:10160000984203D0694B8C3398427DD184F83510D1
:1016100084F83450664B0168A26801EA030E402A40
:1016200073D0802A72D00022D4E90378D4E905313E
:1016300042EAD70242EAD8085C4AD4E9077C48EA81
:10164000D30848EAD10141EAD701524241EA1C11CC
:10165000142341EA0E01016020681044B0FBF3F04E
:101660008000E0652046FEF72FFF94F85C20012102
:1016700002F01F02914041602068B04257D04449B7
:101680001831884253D0484551D050454FD0584525
:101690004DD042491831884249D0404930318842C2
:1016A00045D03E494831884241D03D4988423ED0EC
:1016B0003B49183188423AD039493031884236D0D6
:1016C00037494831884232D03549603188422ED07E
:1016D0003349783188422AD031499031884226D026
:1016E0002F49A831884222D0304988421FD02F4943
:1016F000143188421BD02D492831884217D02B49FC
:101700003C31884213D002E01DE017E018E0274981
:10171000503188420BD025496431884207D0234993
:101720007831884203D021498C31884229D1204622
:10173000FEF724FFA06880280CD00CE0102273E78D
:101740004FF4804270E74021616584F835800120C4
:10175000BDE8F09F6560216E20790860D4E9190129
:1017600041606068401E072808D82046FEF754FFF5
:10177000E06E0560D4E91C01416002E0E566256782
:1017800065670120656584F835000020E0E700000A
:101790001000024040000240580002407000024029
:1017A000100402403F8010FE0010005C08540258F4
:1017B0000F00FEFF2DE9F84F04008C464FF00000AB
:1017C000009014D094F83400012812D094F83550C9
:1017D0000120002184F83400012D0CD0C002606586
:1017E0000120009084F834100098BDE8F88F0120A3
:1017F000FBE70220F9E78C4D0226206884F835606B
:10180000A8428A4D61658A4E8A4FDFF82C82DFF844
:101810002C92DFF82CA2DFF82CB226D0A84224D0DC
:10182000B04222D0B84220D040451ED048451CD0FE
:1018300050451AD0584518D08349884215D082495E
:101840001831884211D08049303188420DD07E490C
:101850004831884209D07C496031884205D07A49B4
:101860007831884201D078499031016821F0010136
:10187000016061462046FEF733FF6B4920688842CD
:101880002CD0A8422AD0B04228D0B84226D0404519
:1018900024D0484522D0504520D058451ED06A4A11
:1018A00090421BD0684A1832904217D0664A3032B4
:1018B000904213D0644A483290420FD0624A60325C
:1018C00090420BD0604A7832904207D05E4A903204
:1018D000904203D05C4AA83290420CD1026822F0B8
:1018E0001E0242F016020260206C88B12068026875
:1018F00042F008020BE0026822F00E0242F00A02F7
:101900000260206C20B12068026842F0040202608C
:10191000206888424BD0A84249D0B04247D0B84254
:1019200045D0404543D0484541D050453FD058452B
:101930003DD0454A90423AD0434A1832904236D080
:10194000414A3032904232D03F4A483290422ED003
:101950003D4A603290422AD03B4A7832904226D0AB
:10196000394A9032904222D0374AA83290421ED053
:10197000364A90421BD0354A1432904217D0334A2F
:101980002832904213D0314A3C3290420FD02F4A35
:10199000503290420BD02D4A6432904207D02B4AED
:1019A0007832904203D0294A8C3290420DD1206E79
:1019B0000268D20303D5026842F480720260E06ECE
:1019C00018B1026842F4807202602068884226D012
:1019D000A84224D0B04222D0B84220D040451ED0E8
:1019E00048451CD050451AD0584518D01649884251
:1019F00015D015491831884211D013493031884229
:101A00000DD011494831884209D00F4960318842D0
:101A100005D00D497831884201D00B4990310168D9
:101A200041F001010160DFE61000024028000240A1
:101A3000400002405800024070000240880002400E
:101A4000A0000240B80002401004024008540258AE
:101A500070B5044600F030F90546601C02D0044819
:101A60000078044400F028F9401BA042FAD370BD6E
:101A7000000000242DE9F84F03247D4D00234FF092
:101A800001094FF0B04B4FF00F0AE9E009FA03F7F4
:101A90003A4076D00E7906F00306012E01D0022ED0
:101AA00018D1D0F808C04FEA430ECE6804FA0EF8F9
:101AB0002CEA080C06FA0EF646EA0C068660D0F808
:101AC00004C00E792CEA070CC6F300169E4046EAC5
:101AD0000C0646600E79F643B6070BD0C6684FEA8F
:101AE00043088F6804FA08FC26EA0C0607FA08F790
:101AF0003743C7600E7906F00306022E12D1DE08C6
:101B00000F694FEA437C00EB8606B646366A4FEA19
:101B1000DC6C0AFA0CF807FA0CF726EA08063743D9
:101B2000CEF820700F7906684FEA430807F00307E4
:101B300004FA08FC07FA08F726EA0C0637430760A0
:101B40004E6816F4403F1CD04A4E376847F00207F3
:101B5000376036689F0706F00206009623F00306FA
:101B600006F1B046B6463F0FD6F80864DFF80881A4
:101B70000AFA07FC404526EA0C0603D14FF0000C98
:101B800041E06CE0DFF8F4C0604502D14FF0010C99
:101B900039E0DFF8ECC0604502D14FF0020C32E0D2
:101BA000DFF8E0C0604502D14FF0030C2BE0DFF816
:101BB000D8C0604502D14FF0040C24E0DFF8CCC05F
:101BC000604502D14FF0050C1DE0DFF8C4C0604550
:101BD00002D14FF0060C16E0DFF8B8C0604502D124
:101BE0004FF0070C0FE0DFF8B0C0604502D14FF0B6
:101BF000080C08E0DFF8A4C0604502D14FF0090CE2
:101C000001E04FF00A0C0CFA07FC4CEA060CCEF887
:101C100008C44F68DBF80060FF0226EA020600D520
:101C200016435F46CBF80060D1F804C0DBF80460CF
:101C30005FEA8C2C26EA020600D516437E606E68A9
:101C40004F6826EA0206BF0300D516436E602E6871
:101C50004F6826EA0206FF0300D516432E605B1C80
:101C60000A6832FA03F67FF411AFBDE8F88F00007E
:101C700080000058F4440258000002580004025842
:101C800000080258000C02580010025800140258B4
:101C900000180258001C0258002002580024025864
:101CA0000AB1816170470904FBE700000148006840
:101CB000000C70470010005C01488068704700000D
:101CC0000000002402488168027811448160704756
:101CD00000000024032010B500F086F801F060F841
:101CE0000F4A104914681368C4F3032203F00F036A
:101CF0008A5CC95C02F01F0201F01F01D0400A4A51
:101D000020FA01F11160094908600F2000F010F875
:101D100008B1012010BD00F02BF8002010BD00001C
:101D20001844025882770208100000240C00002496
:101D300070B50D4D04462878A0B14FF47A71B1FB0F
:101D4000F0F00A490968B1FBF0F001F087FE48B9EC
:101D5000102C07D200222146501E00F025F800204A
:101D60006C6070BD012070BD000000240C000024D8
:101D7000054808B5016841F002010160006800F003
:101D80000200009008BD0000F4440258002809DB5E
:101D9000410900F01F028900012001F1E02190407B
:101DA000C1F80001704700000E4BF0B41B680D46EF
:101DB000C3F30223C3F10706042E00D90426191D1C
:101DC000072901D2002300E0DB1E012404FA06F1FA
:101DD0009C40491E2940641E994014402143F0BC98
:101DE00003F0E4BB0CED00E0064900F0070210B57B
:101DF0004FF6FF040868044B204040EA02201843D5
:101E0000086010BD0CED00E00000FA05134970B544
:101E10000A68D243520705D5096801F007018142DB
:101E200013D118E00A6822F0070202430A60FFF7A4
:101E300043FF0A4D4FF47A760446083D07E000BFA1
:101E4000FFF73AFF001BB04201D9012070BD28689E
:101E5000C0438004F4D4002070BD00000C48025838
:101E600010B500F057FF05490968054AC1F3021192
:101E7000515C01F01F01C84010BD00002044025811
:101E800082770208494930B5484C0B1D0A68143462
:101E900009681D68246802F00303C5F30012C1F34A
:101EA0000531C4F3CC04002914FB02F200EE102A21
:101EB000F8EE400A75D03F4A9FED3D1AB7EE000A92
:101EC0006BB1DFED3D1A012B01D0022B64D002EE85
:101ED000101A1168F8EE422A81EEA22A21E0334C52
:101EE000283C23689B0612D5344B246801EE901AD7
:101EF0001168C4F3C104F8EE612AE34001EE903AA0
:101F0000C1F30801F8EE611A81EEA22A0BE001EE9E
:101F1000901ADFED2B2A00BFF8EE611A116882EEED
:101F2000A12AC1F3080101EE901A1168F8EE611AB6
:101F300040EE811A71EE800A62EE200AC1F346215A
:101F400001EE101AB8EE411A31EE001AC0EE811AF5
:101F5000BCEEE11A80ED001A1168C1F3064101EEF2
:101F6000101AB8EE411A31EE001AC0EE811ABCEE1A
:101F7000E11A80ED011A1168C1F3066101EE101A31
:101F8000B8EE411A31EE000A80EE801ABCEEC10AAA
:101F900080ED020A30BD04E001EE901ADFED092A5F
:101FA000BAE70021016041608160F3E728440258EC
:101FB00000000039384402580024744A0090D003CD
:101FC0000024744C20BCBE4B494930B5484C0B1D15
:101FD0000A681C3409681D68246802F00303C5F30D
:101FE0000022C1F30551C4F3CC04002914FB02F212
:101FF00000EE102AF8EE400A75D03F4A9FED3D1AD8
:10200000B7EE000A6BB1DFED3D1A012B01D0022BB8
:1020100064D002EE101A1168F8EE422A81EEA22A6C
:1020200021E0334C283C23689B0612D5344B2468AE
:1020300001EE901A1168C4F3C104F8EE612AE3407E
:1020400001EE903AC1F30801F8EE611A81EEA22A7E
:102050000BE001EE901ADFED2B2A00BFF8EE611ABB
:10206000116882EEA12AC1F3080101EE901A1168ED
:10207000F8EE611A40EE811A71EE800A62EE200AD3
:10208000C1F3462101EE101AB8EE411A31EE001AE2
:10209000C0EE811ABCEEE11A80ED001A1168C1F39E
:1020A000064101EE101AB8EE411A31EE001AC0EEE8
:1020B000811ABCEEE11A80ED011A1168C1F30661C4
:1020C00001EE101AB8EE411A31EE000A80EE801AC5
:1020D000BCEEC10A80ED020A30BD04E001EE901AA8
:1020E000DFED092ABAE70021016041608160F3E772
:1020F0002844025800000039404402580024744A21
:102100000090D0030024744C20BCBE4B2DE9FE4F40
:102110000546DFF8E48350F8081B0024F64FC94356
:10212000019005F12800264608F1240800900801D6
:102130001DD4A86E50B1B0F5801F0CD0B0F5001FB3
:102140000ED0B0F5401F1ED001240FE0386840F4D7
:102150000030386017E00198022102F0ABFB03E089
:102160000098022102F036FC04000CD02646288894
:10217000C043C00523D4A86D05281ED2DFE800F0B7
:102180000C11161B1B00AA6ED8F8001021F4401188
:102190001143C8F80010EAE7386840F400303860AE
:1021A00009E00198002102F085FB03E0009800217E
:1021B00002F010FC044674B100E001242646288891
:1021C000C043800528D4E86D80281ED00CDC90B177
:1021D00040280ED114E0AA6DD8F8001021F00701B4
:1021E0001143C8F80010EAE7C02813D0B0F5807F8B
:1021F00010D001240FE0386840F40030386009E066
:102200000198002102F056FB03E00098002102F043
:10221000E1FB04469CB126462888DFF8DC92C043E7
:1022200009F12C0940052CD4D5F8A800B0F5800F91
:1022300020D00DDCA0B1B0F5001F0FD115E0EA6D84
:10224000D8F8001021F4E0711143C8F80010E3E75A
:10225000B0F5C00F13D0B0F5000F10D001240FE07F
:10226000386840F40030386009E00198002102F03D
:1022700021FB03E00098002102F0ACFB04467CB196
:1022800026462888C04300052DD4D5F8AC00B0F10F
:10229000007F21D00EDCA8B1B0F1807F10D116E014
:1022A000D5F8A820D9F8001021F460011143C9F82D
:1022B0000010E6E7B0F1407F13D0B0F1806F10D08E
:1022C00001240FE0386840F40030386009E00198DC
:1022D000002102F0EFFA03E00098002102F07AFBFF
:1022E000044674B126462868C04380011FD4E86CB8
:1022F000D8B110280FD0202812D0302815D00124B2
:1023000014E0D5F8AC20D9F8001021F0E0611143B9
:10231000C9F80010E7E7386840F40030386004E09E
:102320000198022102F0C6FA044674B126462888B4
:10233000C043C0042BD4286EB0F5005F20D00DDC64
:10234000A0B1B0F5805F0FD115E06B48EA6C20308A
:10235000016821F0300111430160E8E7B0F5405F0A
:1023600013D0B0F5804F10D001240FE0386840F44E
:102370000030386009E00198002102F09BFA03E088
:102380000098002102F026FB04468CB126462888DE
:10239000C043800429D4686EB0F5403F23D010DCE0
:1023A00008B3B0F5803F14D0B0F5003F0FD115E071
:1023B0002A6ED8F8001021F4E0411143C8F800104B
:1023C000E5E7B0F5802F0ED0B0F5A02F0BD001249B
:1023D0000AE00198012102F06DFA03E00098012162
:1023E00002F0F8FA044694B126462888C043400417
:1023F0002AD4D5F8B000B0F1405F23D010DC08B388
:10240000B0F1805F14D0B0F1005F0FD115E06A6EBB
:10241000D8F8001021F4E0211143C8F80010E4E7D7
:10242000B0F1804F0ED0B0F1A04F0BD001240AE0E4
:102430000198012102F03EFA03E00098012102F028
:10244000C9FA044674B126462888C04300041FD444
:10245000286FD8B1B0F1805F0ED0B0F1005F10D01E
:10246000012414E0D5F8B020D9F8001021F0E041A3
:102470001143C9F80010E7E7386840F400303860CD
:1024800004E00198012102F015FA044674B12646D1
:102490002868C043C0011ED4A86CD0B101280ED05A
:1024A000022811D0032814D0012413E02A6FD8F891
:1024B000001021F040511143C8F80010E8E73868D7
:1024C00040F40030386004E00198022102F0F2F993
:1024D0000446ACB126462868DFF81CB0C043ABF117
:1024E0001C0B400252D40548016841F48071016020
:1024F000FFF7E2FB824611E02C44025800480258E4
:10250000FA48AA6C016821F0030111430160E2E777
:10251000FFF7D2FBA0EB0A00642835D8F448006826
:10252000C005F5D58CBBDFF8C4A3B5F8B4100AF12B
:10253000240ADAF8000001F4407100F44070884287
:1025400011D0DAF80010DAF8002021F4407142F4DA
:102550008032CAF80020DAF8002022F48032CAF86B
:102560000020CAF80010D5F8B400B0F5807F1AD169
:10257000FFF7A2FB029012E0FFF79EFB0299411ABF
:1025800041F2883081420AD9032426462878DFF8B0
:102590005CA3C0430AF1080AC00721D03CE0DAF886
:1025A00000008007E8D5D5F8B410C1F30120032856
:1025B00058460DD0016821F47C510160B5F8B42073
:1025C000DAF80010C2F30B021143CAF80010DDE77D
:1025D000C84A036802EA111223F47C511143ECE764
:1025E000E86F182816D005DCA0B1082808D01028FC
:1025F00004D10AE020280DD028280BD001240AE0BD
:102600000198012102F056F903E00098012102F03F
:10261000E1F9044664B126462878C04380071ED4F9
:10262000A86F062819D2DFE800F0160C111616164E
:10263000EA6FDAF8001021F038011143CAF80010EF
:10264000EAE70198012102F035F903E00098012141
:1026500002F0C0F904467CB100E001242646287847
:10266000C04340071FD4D5F89400062819D2DFE8EC
:1026700000F0160C11161616AA6FDAF8001021F0E9
:1026800007011143CAF80010E9E70198012102F09F
:1026900011F903E00098012102F09CF90446A4B16D
:1026A00000E0012426462878C04380062BD4D5F8C4
:1026B0009000B0F1405F24D011DC10B3B0F1805F26
:1026C00015D0B0F1005F10D116E0D5F89420D9F8FC
:1026D000001021F007011143C9F80010E3E7B0F141
:1026E000804F0ED0B0F1A04F0BD001240AE001982A
:1026F000002102F0DFF803E00098022102F06AF9FD
:10270000044694B126462878C04340062BD4D5F819
:102710009C00B0F5406F24D011DC10B3B0F5806F91
:1027200015D0B0F5006F10D116E0D5F89020DAF88A
:10273000001021F0E0411143CAF80010E3E7B0F5C2
:10274000805F0ED0B0F5A05F0BD001240AE00198A5
:10275000002102F0AFF803E00098022102F03AF9FC
:10276000044694B126462878C04300062BD4D5F8F9
:10277000A000B0F5C04F24D011DC10B3B0F5005F5D
:1027800015D0B0F5804F10D116E0D5F89C20D9F8BF
:10279000001021F4E0511143C9F80010E3E7B0F54F
:1027A000004F0ED0B0F5204F0BD001240AE0019865
:1027B000002102F07FF803E00098022102F00AF9FC
:1027C000044654B126462878C04300071ED4D5F8E5
:1027D0008400B0F5805F0AD00FE0D5F8A020D9F8CA
:1027E000001021F460411143C9F80010EBE7009894
:1027F000022102F0EFF800B10126D5F88420DAF8C2
:10280000001021F440511143CAF800102878C04349
:10281000C00613D4D5F89800B0F5807F05D1009894
:10282000022102F0D7F800B10126D5F89820D9F896
:10283000001021F440711143C9F800102868C0430A
:10284000000316D4D5F8A40038B1B0F5803F09D004
:10285000B0F5003F0BD001240AE00198002102F0FE
:1028600029F803E00098022102F0B4F804468CB184
:1028700026462868C043400322D4D5F88800B0F526
:10288000801F11D0B0F5001F13D0B0F5401F15D038
:10289000012414E0D5F8A420D9F8001021F4403127
:1028A0001143C9F80010E4E7386840F4003038609C
:1028B00004E00098012102F08DF804465CB1264640
:1028C0002868C043C00323D4286DA8B1B0F5803F69
:1028D00017D001241BE0D5F88820DAF8001021F485
:1028E00040111143CAF80010EAE700004C440258B6
:1028F00000480258CFFFFF00386840F400303860CD
:1029000004E00198022101F0D5FF0446E4B1264617
:102910002868C043800005D40098022102F05AF8CC
:1029200000B101262868C04380031BD4D5F880007D
:10293000B0B1B0F5807F0FD0B0F5007F10D0B0F50A
:10294000407F0DD001240CE05A482A6D016821F423
:10295000803111430160DBE7386840F400303860B3
:10296000ECB326462868C043C00207D46A6FD8F883
:10297000001021F000411143C8F800102868C0433E
:10298000C00008D4D5F8B820DBF8001021F480414D
:102990001143CBF800102868C043800207D4EA6EC8
:1029A000D8F8001021F080711143C8F80010286891
:1029B000C04340000CD4DBF8001021F40041CBF8F8
:1029C0000010DBF80010D5F8BC201143CBF8001044
:1029D0002868C04308D437486A6D016800E018E0F1
:1029E00021F04051114301602868C043000208D41F
:1029F000D5F88C20DAF8001021F440011143CAF810
:102A0000001028790024C04300F0010020430AD0C0
:102A10000FE0D5F88020DAF8001021F4407111435E
:102A2000CAF800109EE70198002101F043FF00B1B1
:102A300006462879C04300F00200204305D10198E2
:102A4000012101F037FF00B106462879C04300F0AC
:102A50000400204305D10198022101F02BFF00B1B1
:102A600006462879C04300F00800204305D10098AD
:102A7000002101F0AFFF00B106462879C04300F005
:102A80001000204305D10098012101F0A3FF00B1FF
:102A900006462879C04300F02000044304D1009882
:102AA000022101F097FF00B916B10120BDE8FE8FA9
:102AB0000020FBE74C4402582DE9F05F04000F466C
:102AC0007ED0DFF83882D8F8000000F00F00B8425E
:102AD0000CD2D8F8001021F00F013943C8F80010CB
:102AE000D8F8000000F00F00B84269D12078844D7A
:102AF00040070AD52069296801F07001884204D98D
:102B0000296821F070010143296020787C4E361D30
:102B100000070AD56069316801F07001884204D964
:102B2000316821F07001014331602078C0060AD578
:102B3000A069316801F4E061884204D9316821F468
:102B4000E061014331602078DFF8B4B180060BF119
:102B5000080B0CD5E1695846DBF8002002F0700242
:102B6000914204D9026822F070020A430260207880
:102B700080070AD5E068296801F00F01884204D96E
:102B8000296821F00F01014329602078C0073ED059
:102B90005B49A2682868183920F4706010432860E7
:102BA0006068022818D0032819D00968012819D0B4
:102BB000490700294ADADFF848A1AAF1080A00E02B
:102BC00044E0DAF8002022F007020243CAF80020AD
:102BD000FFF772F8814612E009688903E9E709689E
:102BE0008901E6E7C905E4E7FFF766F8A0EB09010C
:102BF00041F28830814202D90320BDE8F09F61682C
:102C0000DAF8000000F03800B0EBC10FECD120780A
:102C100080070AD5E068296801F00F01884204D2D4
:102C2000296821F00F0101432960D8F800104046BF
:102C300001F00F01B9420BD9016821F00F013943AE
:102C40000160006800F00F00B84201D00120D4E715
:102C5000207840070AD52069296801F07001884270
:102C600004D2296821F0700101432960207800070F
:102C70000AD56069316801F07001884204D2316878
:102C800021F07001014331602078C0060AD5A069A7
:102C9000316801F4E061884204D2316821F4E061D6
:102CA00001433160207880060CD5E1695846DBF895
:102CB000002002F07002914204D2026822F07002F9
:102CC0000A43026000F06CF80E492A682B68C2F3D0
:102CD000032203F00F038A5CC95C02F01F0201F0BB
:102CE0001F01D040084A20FA01F11160074908602D
:102CF00007480068BDE8F05FFFF71AB800200052EF
:102D00001844025882770208100000240C000024A6
:102D10000400002430B500F043F80B4A0B490C4B7B
:102D200015681468C5F3032204F00F048A5C095D7A
:102D300002F01F0201F01F01D040064A20FA01F103
:102D400019601060084630BD1844025882770208A6
:102D5000100000240C00002400B5FFF7DBFF05493C
:102D60000968054AC1F30211515C01F01F01C84016
:102D700000BD00001C4402588277020800B5FFF72E
:102D8000C9FF05490968054AC1F30221515C01F0F8
:102D90001F01C84000BD00001C4402588277020891
:102DA000454970B545480968434B103B11F038025E
:102DB00008D00111082A03D0102A0BD0182A0BD0F2
:102DC000084670BD19688906FBD51968C1F3C101B1
:102DD000C84070BD3A4870BD3749374D18310C1D99
:102DE00024350A68096826682D6802F0030406F095
:102DF0000102C1F30511C5F3CC0515FB02F200EE8B
:102E0000102AB8EE400AE9B32F4ADFED2E0AB7EEDA
:102E1000001A6CB1DFED2D1A012C01D0022C43D029
:102E200002EE101A1068F8EE422A81EEA22A1EE085
:102E30001C68A40611D51B6801EE901A1168C3F333
:102E4000C103F8EE612AD84001EE900AC1F30800F0
:102E5000F8EE611A81EEA22A0BE001EE901ADFED86
:102E60001C2A00BFF8EE611A106882EEA12AC0F396
:102E7000080001EE900AF8EE611A40EE201A31EED9
:102E8000810A00E015E022EE000A1068C0F3462037
:102E9000401C00EE900AF8EE600A80EE201ABCEEAC
:102EA000C10A10EE100A70BD01EE901ADFED092A7A
:102EB000D8E7002070BD0000104402580090D003F5
:102EC00040787D0100000039304402580024744AE3
:102ED0000024744C20BCBE4B2DE9F05F04007DD073
:102EE000FF4F2078FE4D1837DFF8F493103DC007F0
:102EF00048D0D9F80000396800F03800102815D003
:102F0000182803D101F0030002280FD06068B0F543
:102F1000803F12D010B1B0F5A02F18D0286820F44F
:102F200080302860286820F4802009E02868800329
:102F300028D560680028D2D024E0286840F480308A
:102F40002860606888B1FEF7B7FE064609E0286889
:102F500040F480202860F0E7FEF7AEFE801B642876
:102F60006FD828688003F7D50CE0FEF7A5FE06466B
:102F700005E000BFFEF7A0FE801B6428F0D828689B
:102F80008003F7D4207841F20308D54E0C3E800729
:102F900069D5D9F80000396810F038000ED018282B
:102FA00001D188070AD0E06890B3296821F019019F
:102FB00001432960FEF780FE824631E02868400721
:102FC00002D5E06800288AD0E168286820F019005E
:102FD00008432860FEF770FE824607E0DFE000BF8E
:102FE000FEF76AFEA0EB0A000228B9D8286840075D
:102FF000F6D500BFFEF75AFE40451BD82069402891
:1030000012D0316821F47C3141EA003030602AE08E
:1030100018E000BFFEF750FEA0EB0A0002289FD880
:1030200028684007F6D5E5E7306820F47C3040F4A6
:103030000030EBE7207C316821F0FE4141EA00607E
:10304000E4E70DE1286820F001002860FEF734FE77
:10305000824605E0FEF730FEA0EB0A0002288DD87C
:1030600028684007F6D42078C0065DD5D9F800005E
:10307000DFF86CB2396800F03800ABF1040B0828B7
:1030800010D0182803D101F0030001280AD0E0690C
:103090000028286838D040F080002860FEF70CFE39
:1030A000824623E02868C00523D5E069802876D1D0
:1030B0001FE0206A202821D0316821F0F84141EA40
:1030C0008060306030E000BF94F82010DBF8002012
:1030D00022F07C5242EA0161CBF8001024E000BFEC
:1030E000FEF7EAFDA0EB0A00022898D82868C00580
:1030F000F6D5FEF7DBFD4045E6D8DAE7306820F08C
:10310000F84040F08040DCE720F080002860FEF7C7
:10311000D3FD064605E000BFFEF7CEFD801B02286A
:103120009DD82868C005F7D42078000729D56C48B9
:103130006169643000298046016811D041F00101C5
:103140000160FEF7B9FD064605E000BFFEF7B4FDDD
:10315000801B0228C9D8D8F800008007F6D510E0F7
:1031600021F001010160FEF7A7FD064605E000BF62
:10317000FEF7A2FD801B022872D8D8F80000800755
:10318000F6D42078800623D5A0690028286810D0BE
:1031900040F480502860FEF78FFD064605E036E1DA
:1031A000FEF78AFD801B02285AD828688004F7D5CC
:1031B0000EE020F480502860FEF77EFD064604E015
:1031C000FEF77AFD801B02284AD828688004F7D4CD
:1031D000207840074FD5DFF80C81D8F8001041F473
:1031E0008071C8F80010FEF767FD064605E000BFD5
:1031F000FEF762FD801B642832D8D8F80000C005B5
:10320000F6D5374EA068603601280AD008B10528E7
:1032100013D0306820F001003060306820F00400E6
:1032200002E0306840F001003060A06841F2883A66
:1032300090B1FEF741FD80460AE0306840F004009E
:103240003060EEE7FEF738FDA0EB0801514507D8E6
:1032500030688007F6D50EE0FEF72EFD804607E0C9
:1032600084E000BFFEF728FDA0EB080151457DD8A2
:1032700030688007F6D4606AB0B3DFF86480D9F8AC
:10328000001008F120084FF6F87B08F10409C1F39B
:10329000C2010329A8F1040A69D00228286820F095
:1032A0008070286003D0FEF707FD044684E0FEF737
:1032B00003FD064605E000BFFEF7FEFC801B02286A
:1032C00077D828688001F7D4E26A40F2F331386891
:1032D00054F8283F884340EA02101843386004E05D
:1032E0001044025800480258B5E0217B4346228929
:1032F0004FF4FE0C208A4FF0FE474902267D521EF5
:10330000401EA1F50071C2F308088AB2761E0CEACD
:10331000004042EA08020243504607EA06610A43B7
:103320001A60DAF8002022F00102CAF80020D9F869
:103330000020266A22EA0B0242EAC602C9F80020EF
:10334000DAF80010A26921F00C011143CAF800104C
:103350000168E26921F0020111430160016841F452
:1033600080310160016841F4003101E021E027E093
:103370000160016841F480210160016841F00101B0
:103380000160286840F080702860FEF795FC0446D4
:1033900005E000BFFEF790FC001B022809D8286852
:1033A0008001F7D557E000BFFEF786FC001B02281E
:1033B00002D90320BDE8F09F28688001F4D44AE0D8
:1033C00039680128D8F8000021D0A26A01F003036F
:1033D00093421CD1E26AC1F305118A4217D1216BD5
:1033E000C0F30802491E8A4211D1616BC0F3462224
:1033F000491E91420BD1A16BC0F30642491E914276
:1034000005D1E16BC0F30660491E814201D0012065
:10341000D0E7A16C4E46D9F80000C0F3CC00814241
:1034200019D0DAF80000554620F00100CAF8000073
:10343000FEF742FC4FEA0007FEF73EFCB842FBD025
:10344000A26C306820EA0B0040EAC20030602868B5
:1034500040F0010028600020ACE770472DE9F047FC
:1034600004460068002103694269876894F8816016
:1034700000F130095FEA025C03EA02050AD51A0787
:1034800008D5816941F400618161204600F01BFA92
:10349000BDE8F08715F0600F08D1680706D5616FA9
:1034A00020468847216F20468847012105F04100CA
:1034B000012805D1680703D4216F204688470121E0
:1034C00005F02200022806D1680704D4616F204667
:1034D000BDE8F04708470029DAD128074FF0010876
:1034E0005BD52068816941F00801816120688169AC
:1034F00041F0100181612068816941F400618161BE
:103500002068016921F0080101612068806810F4D9
:10351000404F20D023E0E0680F2806D92068616E74
:10352000006B0860606E001D0FE0072806D9B9F82F
:103530000000616E0880606E801C06E02068616E8D
:1035400090F830000870606E401C6066B4F86A0045
:10355000401EA4F86A00B4F86A000028DBD12046B7
:1035600001F0D6FA84F88180D4F8840018B120469E
:10357000FFF773FF8CE7052E07D0042E09D0032E2A
:1035800086D1204600F05EFA82E7204600F065FA18
:103590007EE7204600F096F97AE715F4587FE9D0E7
:1035A00068060AD5D4F8840040F00400C4F884000A
:1035B0002068816941F040018161A8050AD5D4F8ED
:1035C000840040F00100C4F884002068816941F45F
:1035D00000718161E8050AD5D4F8840040F0080044
:1035E000C4F884002068816941F480718161A80673
:1035F0000AD5D4F8840040F08000C4F88400206824
:10360000816941F020018161D4F884000028B1D0A3
:10361000206840F26B32C7F381310368032923F03D
:10362000010101602068016921EA0201016102D003
:1036300084F881809BE72068104D816821F4404127
:103640008160E06F50B10565E06FFDF719FA28B1B0
:10365000D4F8840040F04000C4F88400A06F002833
:1036600088D00565A06FFDF70BFA00288CD0D4F840
:10367000840040F04000C4F8840009E7CD4B000806
:103680002DE9F047040029D0594A4FF0000920687D
:10369000584B594D9042C4F8289006D0984204D017
:1036A000A84202D0E1680F2918D8E1684FF0010A5A
:1036B000E76B0831C9080AEB57167143904205D0F1
:1036C000984203D0A84201D0082907D8904203D0DD
:1036D000984201D0A84204D1102902D90120BDE8A6
:1036E000F08794F8810020B9204684F8809000F09B
:1036F00085F8022084F881002068016821F001012A
:1037000001602068A1698268B1F1806F02F4F8114C
:1037100010D16268B2F5800F01D01AB10AE0A26B35
:1037200022B107E0A26BB2F1805F03D1026842F4DC
:10373000805202606068400209D5E068072806D31D
:103740002068236D026822F480721A4303E0206827
:10375000026822F480720260A66AE069E26B256862
:103760003043E3680A4310431843A860D4E90D02CC
:10377000D4E90581636A25691843D4F820C00A4357
:10378000266810432843A56DD4E90172D4E91231AB
:1037900040EA080040EA0C0038430843104318434D
:1037A0002843F060606868B92068816821F4C051DE
:1037B00041F4006181602068816821F4C06141F4B6
:1037C000806181602068016D21F001010165606800
:1037D000400206D52068626DC16821F000411143A6
:1037E000C160C4F8849084F881A0002077E70000CD
:1037F0000030014000380040003C004070B5B6B0D9
:103800000646142130A8FCF7BDFDC0216846FCF730
:10381000B9FD27493068884247D1811400201890AB
:103820000546CDE900106846FEF770FC08B1FDF7CB
:1038300068F82048016841F480510160006800F494
:10384000805035901B481038016841F0010101603B
:10385000006830AB022100F001003590A020052265
:1038600083E82300144830A9CDE93352FEF702F96A
:10387000124C26211248402284E8270003152046D6
:10388000C4E90435A561E56125626562FDF7B0FD17
:1038900008B1FDF736F80022B46723201146A6636D
:1038A000FEF782FA2320FEF771FA36B070BD0000F1
:1038B00000300140F0440258000002583803002450
:1038C00010000240704770472DE9F041044690F81F
:1038D00080001646012809D094F8810001270025B0
:1038E00084F88070012804D0022035E00220BDE871
:1038F000F08181B37EB3A2680320E165A4F8606023
:1039000084F88100C4F88450A4F862606566656735
:103910002567A4F86850A4F86A50B2F5C02F206853
:103920001DD0C16821F4C02141F40031C0F80C1051
:10393000E1684FF480420F2903D9A06F806990425B
:1039400009D1A06F07294FF400530DD9806998421F
:103950001BD0904219D0012084F88050C7E701683D
:1039600041F400610160E3E78169994205D1B4F84F
:103970006210491C4908A4F86210806990420ED177
:10398000B4F86200C01C800807E00F2907D89042F5
:1039900005D1B4F86200401C4008A4F86200A06F92
:1039A00025490164A16F2548C863A16F2448C864F4
:1039B000A06F05652068816821F400418160B4F83A
:1039C00062302268E16DA06F2032FDF7F3FE58B13E
:1039D000D4F88410384684F8805041F01001C4F8BF
:1039E000841084F8817082E7A06FC069B0F5807F91
:1039F000206841686FF30F0100D0314341602068B7
:103A0000816841F4004181602068016941F4487196
:103A100001612068016841F0010101606068B0F552
:103A2000800F04D12068016841F4007101602846CC
:103A300084F880505BE70000134C00081D4C000820
:103A4000E74B0008034991F88110012901D123F0C7
:103A500045BC7047B002002470477047401EB0F16B
:103A6000807F10B501D3012010BD4FF0E0246061CC
:103A70000F21601701F09AFD0020A061072121614C
:103A800010BD704770477047F0B590F83C20012A90
:103A90003BD01F4E012480F83C40022280F83D209C
:103AA00002681C4D5368B242D2F808C001D0AA4245
:103AB00003D14F6823F470033B430F6823F0700376
:103AC0001F4357600268B24213D0B2F1804F10D04A
:103AD000114B9A420DD0114B9A420AD0104B9A4288
:103AE00007D0AA4205D00F4B9A4202D00E4B9A4201
:103AF00004D189682CF0800319439160002180F87B
:103B00003D4080F83C100846F0BD0220F0BD0000AA
:103B10000000014000040140000400400008004093
:103B2000000C0040001800400040014010B50400A7
:103B300003D094F83D0010B107E0012010BD002033
:103B400084F83C00204600F023F8022084F83D0071
:103B50002068211D01F05CF9012084F8480084F8F8
:103B60003E0084F83F0084F8400084F8410084F867
:103B7000420084F8430084F8440084F8450084F847
:103B8000460084F8470084F83D00002010BD000086
:103B900008B500680B49884212D10B48016841F012
:103BA0000101016000680022114600F00100009050
:103BB0001920FEF7F9F8BDE808401920FEF7E6B82D
:103BC00008BD000000000140F044025870B50446F2
:103BD00090F83C000025012814D03A4B012684F8C7
:103BE0003C60022084F83D0022689068184020F470
:103BF0007F409060086870282FD010DC10F00F0F05
:103C000003D022E04FF0020070BD4FEA2012072AD5
:103C10001BD2DFE802F0535353534B394100B0F14C
:103C2000101F4BD009DCB0F5805F0FD0B0F5005FFE
:103C30001ED0B0F5801F08D140E0A0F580112039DA
:103C40003CD010293AD0202938D0012584F83D6095
:103C5000002084F83C00284670BD4A682068D1E9FD
:103C6000021301F037F92068816841F0770109E01B
:103C70004A682068D1E9021301F02CF920688168B4
:103C800041F480418160E1E7CA684968206801F039
:103C900035F92068502106E0CA684968206801F0BB
:103CA0003EF92068602101F01FF9CFE7CA68496832
:103CB000206801F023F920684021F4E722680146DA
:103CC0001046F0E788FFCEFF704770B504460068E5
:103CD00000250169C943890715D4C168C94389070B
:103CE00011D4EA1E026101212177206880698007D2
:103CF000204602D0FFF7E8FF04E000F0A7F82046D6
:103D000000F0A5F8257720680169C943490717D451
:103D1000C168C943490713D402216FF0040202614C
:103D200021772068806910F4407F204602D0FFF799
:103D3000CBFF04E000F08AF8204600F088F82577F1
:103D400020680169C943090716D4C168C943090736
:103D500012D404216FF00802026121772068C06943
:103D60008007204602D0FFF7AFFF04E000F06EF8B6
:103D7000204600F06CF8257720680169C943C90620
:103D800017D4C168C943C90613D408216FF01002C3
:103D9000026121772068C06910F4407F204602D07C
:103DA000FFF792FF04E000F051F8204600F04FF8D2
:103DB000257720680169C943C90708D1C168C9438B
:103DC000C90704D1891E0161204600F041F820682E
:103DD0000169C943090609D4C168C943090605D464
:103DE0006FF0800101612046FFF74CFE20680169F9
:103DF000C943C90509D4C168C943090605D46FF48C
:103E0000807101612046FFF73CFE20680169C943CB
:103E1000490609D4C168C943490605D46FF0400179
:103E20000161204600F01EF820680169C943890637
:103E30000BD4C168C943890607D46FF02001016122
:103E40002046BDE87040FFF71EBE70BD704770474A
:103E500000680349884201D11EF08EBB7047000004
:103E600000000140704730B590F88410012918D047
:103E7000012280F884202421C0F888100022202408
:103E800001680B680D6823F0005325F001050D60F3
:103E9000426601680B60C0F8884080F884201046B4
:103EA00030BD022030BD70B5044690F88400012872
:103EB0001DD0012284F884202420C4F888002068C2
:103EC0000568026822F0010202602068826822F020
:103ED00060620A438260204601F034F822682021A3
:103EE00000201560C4F8881084F8840070BD02209A
:103EF00070BD70B5044690F8840001281DD00122E1
:103F000084F884202420C4F88800206805680268AA
:103F100022F0010202602068826822F060420A43B7
:103F20008260204601F00EF82268202100201560F2
:103F3000C4F8881084F8840070BD022070BD10B5EC
:103F4000040003D0D4F8880010B107E0012010BDB0
:103F5000002084F88400204600F026F82420C4F8CD
:103F600088002068016821F001010160204601F00D
:103F7000EFF80128EBD0A06A10B1204601F004F858
:103F80002068416821F4904141602068816821F0F7
:103F90002A0181602068016841F00101016020462A
:103FA000BDE8104001F054B810B5B6B00446142175
:103FB00030A8FCF7E7F9C0216846FCF7E3F9194996
:103FC000206888422BD100201F9001210446CDE9B2
:103FD00000106846FEF79AF808B1FCF792FC124808
:103FE000016841F010010160006800F01000359098
:103FF0000D481038016841F002010160006830ABE3
:10400000022100F0020035904FF44040042283E882
:104010001300064830A9CDE93342FDF72BFD36B039
:1040200010BD000000100140F04402580004025886
:104030002DE9F8430446D0F88800984616460D4608
:10404000202802D00220BDE8F883A5B19EB100214E
:10405000C4F890102120C4F888001834FDF72CFE15
:10406000814654F8100CA687E6872027183CB0F547
:10407000805F02D003E00120E5E7206910B12E4601
:10408000002510E000260EE08021204601F036FADF
:10409000C0B9DEB116F8010B21688862B4F8560089
:1040A000401EA4F85600B4F856004B464FF00002EC
:1040B000CDF800800028E7D14FF04001204601F004
:1040C0001DFA48B1C4F888700320BCE735F8020B2C
:1040D0002168C0F30800E0E7C4F888700020B2E768
:1040E000FEE72DE9F0411D4616460F4604462A20FC
:1040F00000F082FA204600F074FA304600F071FABF
:104100002B2000F079FA384600F06BFA284600F0D0
:1041100068FABDE8F0412C2000F06EBA2DE9F041BC
:104120001C4615460E460746DDF81880FFF7D9FFF6
:10413000E81B084BA11B401C491C4FF400121A60DD
:1041400048434146BDE8F0414004020C0248FFF7F5
:10415000BBBB000018080258B002002470B5FE4D29
:104160004FF4803028606420FDF772FC01242C603D
:104170006420FDF76DFC6420FDF76AFCEF2000F081
:104180003BFAEB2000F038FA142000F041FAFE2050
:1041900000F032FAEF2000F02FFAEB2000F02CFABA
:1041A000142000F035FA842000F026FA402000F0B8
:1041B0002FFA852000F020FAFF2000F029FA86204F
:1041C00000F01AFAFF2000F023FA872000F014FA1A
:1041D000FF2000F01DFA882000F00EFA0A2000F0FF
:1041E00017FA892000F008FA212000F011FA8A203D
:1041F00000F002FA002000F00BFA8B2000F0FCF92E
:10420000802000F005FA8C2000F0F6F9204600F03E
:10421000FFF98D2000F0F0F9204600F0F9F98E202A
:1042200000F0EAF9FF2000F0F3F98F2000F0E4F944
:10423000FF2000F0EDF9B62000F0DEF9002000F0DC
:10424000E7F9202000F0E4F9362000F0D5F9082045
:1042500000F0DEF93A2000F0CFF9052000F0D8F99F
:10426000902000F0C9F9082000F0D2F9082000F0F1
:10427000CFF9082000F0CCF9082000F0C9F9BD20E2
:1042800000F0BAF9062000F0C3F9BC2000F0B4F940
:10429000002000F0BDF9FF2000F0AEF9602000F032
:1042A000B7F9204600F0B4F9042000F0B1F9C320BA
:1042B00000F0A2F9132000F0ABF9C42000F09CF943
:1042C000132000F0A5F9C92000F096F9222000F093
:1042D0009FF9BE2000F090F9112000F099F9E1203B
:1042E00000F08AF9102000F093F90E2000F090F908
:1042F000DF2000F081F9212000F08AF90C2000F085
:1043000087F9022000F084F9F02000F075F94520CB
:1043100000F07EF9092000F07BF9082000F078F920
:10432000082000F075F9262000F072F92A2000F02C
:104330006FF9F12000F060F9432000F069F9702076
:1043400000F066F9722000F063F9362000F060F9A1
:10435000372000F05DF96F2000F05AF9F22000F0EC
:104360004BF9452000F054F9092000F051F90820DC
:1043700000F04EF9082000F04BF9262000F048F933
:104380002A2000F045F9F32000F036F9432000F030
:104390003FF9702000F03CF9722000F039F9362026
:1043A00000F036F9372000F033F96F2000F030F9D3
:1043B000ED2000F021F91B2000F02AF90B2000F07D
:1043C00027F9AE2000F018F9772000F021F9CD2070
:1043D00000F012F9632000F01BF9702000F00CF9D6
:1043E000072000F015F9072000F012F9042000F072
:1043F0000FF90E2000F00CF90F2000F009F9092048
:1044000000F006F9072000F003F9082000F000F999
:10441000032000F0FDF8E82000F0EEF8342000F072
:10442000F7F8622000F0E8F8182000F0F1F80D200D
:1044300000F0EEF8712000F0EBF8ED2000F0E8F865
:10444000702000F0E5F8702000F0E2F8182000F08D
:10445000DFF80F2000F0DCF8712000F0D9F8EF2031
:1044600000F0D6F8702000F0D3F8702000F0D0F8FB
:10447000632000F0C1F8182000F0CAF8112000F005
:10448000C7F8712000F0C4F8F12000F0C1F87020E6
:1044900000F0BEF8702000F0BBF8182000F0B8F86B
:1044A000132000F0B5F8712000F0B2F8F32000F00E
:1044B000AFF8702000F0ACF8702000F0A9F864208C
:1044C00000F09AF8282000F0A3F8292000F0A0F8C6
:1044D000F12000F09DF8204600F09AF8F12000F05D
:1044E00097F8002000F094F8072000F091F866207B
:1044F00000F082F83C2000F08BF8002000F088F8F3
:10450000CD2000F085F8672000F082F8452000F00B
:104510007FF8452000F07CF8102000F079F80020AA
:1045200000F076F8002000F073F8002000F070F83A
:10453000672000F061F8002000F06AF83C2000F0ED
:1045400067F8002000F064F8002000F061F8002017
:1045500000F05EF8204601E01804025800F058F818
:10456000542000F055F8102000F052F8322000F0EE
:104570004FF8982000F04CF8742000F03DF810201F
:1045800000F046F8852000F043F8802000F040F865
:10459000002000F03DF8002000F03AF84E2000F036
:1045A00037F8002000F034F8982000F025F83E207D
:1045B00000F02EF8072000F02BF8352000F01CF852
:1045C000212000F019F8112000F016F87820FDF7EE
:1045D0003FFA292000F010F8BDE870401420FDF7E4
:1045E00037BA10B50446000A00F012F8E0B2BDE890
:1045F000104000F00DB8000010B5044C4FF48011CD
:10460000216000F005F81020206010BD1808025845
:1046100031B5094C4FF4001020600122074869466B
:10462000FFF752F9054800BF90F881100129FBD12E
:104630002020206038BD000018080258B002002475
:10464000104802220E4B002110B50360C0E9011290
:10465000C160C0E91112C164016541658165C16530
:10466000FCF7B6F908B1FCF74CF906480121FCF754
:104670004BF9002803D0BDE81040FCF742B910BD4B
:104680000010005248020024094808B5016841F0B2
:104690000101016000680022114600F00100009055
:1046A0000B20FDF781FBBDE808400B20FDF76EBB3A
:1046B000D84402582DE9F04186B014216846FBF732
:1046C00061FE2648016841F004010160016801F0C3
:1046D00004010591016841F080010160016801F069
:1046E00080010591016841F001010160016801F05C
:1046F00001010591016841F002010160006800229A
:10470000174F42F2300100F0020005903846FDF7E5
:10471000C7FADFF85080002201214046FDF7C0FAB9
:1047200001246946002560038DE831003846039571
:10473000FDF7A0F90326694630208DE87100384660
:10474000FDF798F901AA00946946404682E8700096
:10475000FDF790F906B0BDE8F0810000E044025892
:1047600000080258000402582DE9F04115484FF4A2
:1047700080060021124D34010722C0E90321E30025
:10478000C0E90514C0E9073141625A0081624FF463
:10479000C027C162C0E90D21C16301644164816425
:1047A000C16401654165816580E8E000FEF768FF4E
:1047B000002803D0BDE8F041FCF7A3B8BDE8F081C4
:1047C00000300140B002002430B587B01C480024FE
:1047D0001A49EF2241F28733009480250194029414
:1047E000039404940594069480E81600C0E9033409
:1047F000C0E90545FFF79AF908B1FCF782F84FF4D4
:10480000805000900E486946FFF7E0F908B1FCF7C8
:1048100078F80B4804A9049405940694FFF734F93A
:1048200008B1FCF76EF8002219201146FDF7BCFA1A
:104830001920FDF7ABFA07B030BD000000000140C1
:10484000B00300241848002110B5164C0C224FF478
:10485000E1330460C0E90131C160C0E90412816143
:10486000C161016241628162FFF769FB08B1FCF737
:1048700048F80D480021FFF73CFB08B1FCF741F870
:1048800009480021FFF70FFB08B1FCF73AF806488A
:10489000FFF7E9FA002803D0BDE81040FCF731B873
:1048A00010BD000000100140FC030024FEE7FEE7FD
:1048B000704700002DE9F047454D044689464FF00A
:1048C000000A2868C04380070AD0414E283E30685D
:1048D00020F080603060FDF7EFF90746B04608E051
:1048E0000120BDE8F08700BFFDF7E6F9C01B0228F4
:1048F00067D8D8F800000001F6D4206829684FF482
:10490000FE0721F47C313E0241EA00302860207A23
:10491000A389B4F804C040022D4D2D495B1E227CB2
:10492000ACF1010C1035091DA0F5007080B2521ECB
:10493000CCF3080C07EA034340EA0C00184306EAEC
:104940000262104328600868626920F0C0001043CA
:1049500008600A68A06922F0200202430A60281D4C
:104960000A6822F010020A6002684FF6F873E469E0
:104970009A4342EAC40202600868B9F1000F40F0AD
:1049800010020A6011D00868B9F1010F11D040F48B
:1049900000100860D8F80000444640F08060C8F875
:1049A0000000FDF789F905460DE0086840F4002095
:1049B000EFE740F48010ECE7FDF77EF9401B02289A
:1049C00001D903208DE720680001F5D5504688E71E
:1049D000284402582DE9F047454D044689464FF0DA
:1049E000000A2868C04380070AD0414E283E30683C
:1049F00020F080503060FDF75FF90746B04608E0D0
:104A00000120BDE8F08700BFFDF756F9C01B022862
:104A100067D8D8F800008000F6D4208829684FF4C1
:104A2000FE0721F07C713E0241EA00502860207AA6
:104A3000A389B4F804C040022D4D2D495B1E227C91
:104A4000ACF1010C1835091DA0F5007080B2521EA2
:104A5000CCF3080C07EA034340EA0C00184306EACB
:104A60000262104328600868626920F440601043C5
:104A700008600A68A06922F4007202430A60281DD7
:104A80000A6822F480720A6002684FF6F873E469DB
:104A90009A4342EAC40202600868B9F1000F40F488
:104AA00080720A6011D00868B9F1010F11D040F08E
:104AB00080700860D8F80000444640F08050C8F884
:104AC0000000FDF7F9F805460DE0086840F48000A5
:104AD000EFE740F40000ECE7FDF7EEF8401B02289A
:104AE00001D903208DE720688000F5D5504688E77E
:104AF00028440258054810B5FEF7B0FC034800688A
:104B0000016921F00201016110BD0000B002002422
:104B100010B5026840F26F335169946944F008049B
:104B200094610268946944F0100494610268146806
:104B300024F001041460026814699C431461026843
:104B4000936823F44043936090F88120042A0CD0AA
:104B50008A060AD5D0F8842042F08002C0F884206A
:104B60000268936943F02003936190F88120032A3F
:104B70000CD04A060AD5D0F8842042F00402C0F8CE
:104B800084200268936943F0400393618A050AD543
:104B9000D0F8842042F00102C0F8842002689369B2
:104BA00043F400739361C9050AD5D0F8841041F02D
:104BB0000801C0F8841001688A6942F480728A6131
:104BC0000021A0F86210A0F86A1010BD10B5806B2B
:104BD00000210122A0F86A10A0F8621080F881205C
:104BE000FEF73BFC10BD10B5846BFCF78BF8022878
:104BF0000ED02046FFF78CFFD4F88410012041F03E
:104C00001001C4F8841084F881002046FEF725FCCA
:104C100010BD10B5806BFEF71FFF10BD10B5806B87
:104C200090F88110072909D0816FC969B1F5807F9B
:104C300005D00068016941F00801016110BDFEF76F
:104C400001FF10BD7047FDF73DB8000070B59CB086
:104C50004C216846FBF796FB202113A8FBF792FB3B
:104C60000220FDF7D3F82D4900242D480A6822F0D0
:104C700001020A600A68026842F440420260026867
:104C800002F440421B9202689204FCD5254A136844
:104C900043F002031360126802F002021B920268E2
:104CA00042F44042026002680A6842F001020A606F
:104CB000096801F001011B9101688904FCD50DF11F
:104CC000280C022009900521C0268CE84300CDE97C
:104CD0000D01C3030F900825684601221294CDE907
:104CE0001054CDE90023FEF7F7F808B172B6FEE7DD
:104CF00040201A903F210301CDE916500322CDE94F
:104D0000180313AB13A883E816000421FDF7D4FEA3
:104D1000002801D072B6FEE71CB070BD2C0400580C
:104D200018480258F44402582C48F0B52C4A01683F
:104D300041F470010160106800F00F00072804D2F0
:104D4000106820F00F00C01D106026490020254C7F
:104D500010340B68244D43F001030B6020600B6896
:104D60002B400B60136803F00F03072B04D9136863
:104D700023F00F03DB1D13601A4C1C4A18341C4B24
:104D8000261D371D2060174C1A4D28343060261D13
:104D90003860371D23603B1D35601C1D3A60251DA2
:104DA0002E1D1860331D22602860326018600A686A
:104DB0000C4B114C22F4802260330A60186020688A
:104DC0006FF30F00B0F1005F03D20C490120C1F86E
:104DD000080143F2D2000A490860F0BD88ED00E006
:104DE00000200052004402587FEDF6EA80020101E3
:104DF000000202020000FF010010005C0080005170
:104E0000004000520148FEF760BF0000B0030024DC
:104E10002DE9F047274B4FF0804A274D0268984212
:104E2000264E274F274C09D0504507D0A84205D021
:104E3000B04203D0B84201D0A04205D1D1F804C09D
:104E400022F070024CEA0202DFF87CC0DFF87C80BE
:104E50009842DFF87C900FD050450DD0A8420BD07F
:104E6000B04209D0B84207D0A04205D0604503D077
:104E7000404501D0484503D1CD6822F440722A4311
:104E80004D6922F080022A43026098428A68C26219
:104E90000A68826207D0A04205D0604503D0404531
:104EA00001D0484501D10969016301214161BDE893
:104EB000F0870000000001400004004000080040AE
:104EC000000C00400004014000400140004401404B
:104ED0000048014042EA032283680A4323F47F41E9
:104EE0000A43826070470000034B82681A400A43FD
:104EF00042F00701816070478FFFCFFF10B5036A52
:104F0000046A23F00A0324F00104046284690B4359
:104F100024F0F00141EA02118161036210BD10B575
:104F2000036A23F0100303628369046A23F4704365
:104F300024F0A00443EA0232826144EA01110162D2
:104F400010BD000030B5416EB9B101680D4B03F1E1
:104F500008048A688968C2F34262490F5D5C615C3B
:104F60002D01B5FBF1F1A0F86A10995CA25C090172
:104F7000B1FBF2F1A0F8681030BD0121A0F86A1071
:104F8000F8E700007277020890F82810C90706D0E9
:104F90000168C36A4A6822F400321A434A6090F8F2
:104FA0002810890706D50168036B4A6822F480320D
:104FB0001A434A6090F82810490706D50168436BE8
:104FC0004A6822F480221A434A6090F828100907A0
:104FD00006D50168836B4A6822F400421A434A608E
:104FE00090F82810C90606D50168C36B8A6822F4B8
:104FF00080521A438A6090F82810890606D5016805
:10500000036C8A6822F400521A438A6090F82810D0
:10501000490611D50168436C4A6822F480121A438C
:105020004A60416CB1F5801F06D10168836C4A6803
:1050300022F4C0021A434A6090F82810090606D5E7
:105040000168C26C486820F4002010434860704733
:105050002DE9F84300250446C0F89050FCF72CFEDB
:105060008046206820266FF07E470068000713D531
:105070000022434631042046009700F03FFA58B121
:10508000216851E8000F20F0800041E80002002A6A
:10509000F6D1C4F8886021E020680068400722D576
:1050A000002243464FF480012046009700F026FA84
:1050B000C8B1206850E8001F21F4907140E8001248
:1050C000002AF6D12068083050E8001F21F00101C5
:1050D00040E80012002AF5D1C4F88C60032084F85F
:1050E0008450BDE8F883C4F88860C4F88C60E56635
:1050F0002567002084F88450F3E7000010B50268AB
:1051000052E8001F21F4907142E80013002BF6D101
:105110000E4B0268083252E8001F194042E80014A2
:10512000002CF6D1C16E012908D1026852E8001F97
:1051300021F0100142E80013002BF6D100212022BB
:10514000C0F88C20C166416710BD0000FEFFFFEF74
:105150002DE9F04304468068D84E87B0D84B2168CB
:10516000D4E90427D4F81CC010430A68002547EA94
:105170000C073843324002430A602068E268416805
:1051800021F44051114341602268A1699A4201D043
:10519000206A01439768DFF82CC3CB4ECB4807EA5F
:1051A0000C070F4397602168676ACA6A22F00F02F2
:1051B0003A43CA622268B2420ED1006800F0380059
:1051C000182873D047DCB8B3082879D010286FD1DD
:1051D00078E028287ED17BE0BD498A4209D1006869
:1051E00000F00700062875D2DFE800F0546A6C6E04
:1051F0007072B8498A4209D1006800F00700062899
:1052000068D2DFE800F0475D5F616365B2498A42BA
:1052100009D1006800F0070006285BD2DFE800F043
:105220003A5052545658AD498A420BD1006800F0AA
:10523000070006284ED200E010E0DFE800F02B4126
:1052400043454749A6498A420AD1006800F0380020
:10525000182839D0B7DD2028BBD13CE001203AE046
:10526000A0498A4209D1006800F00700062831D21F
:10527000DFE800F01026282A2C2E9B498A420BD109
:10528000006800F00700062824D2DFE800F00319C8
:105290001B1D1F2100201EE09A421BD18B48001DC0
:1052A000006800F00700062814D202E00CE007E0D6
:1052B00010E0DFE800F0030507090B0D02200AE00B
:1052C000042008E0082006E0102004E0202002E08E
:1052D000402000E080208549DFF814829A42854A08
:1052E0004FF400434FEA21174FF000064ED110282B
:1052F0001AD006DC022809D004280BD008287CD15B
:105300000DE020283ED0402877D13DE0FCF7A8FDF5
:10531000014610E06846FCF7B5FD01990BE003A8D3
:10532000FCF752FE049906E01068800605D5106867
:10533000C0F3C100C140002970D0606A676838F8C6
:10534000102007EB4703B1FBF2F0834255D8B0EBD6
:10535000073F52D8002308461946FAF7BBFF02461A
:105360007808130E120243EA012110183A467141DF
:105370000023FAF7AFFF604AA0F5407191423CD894
:1053800021688FE03946D8E71946D6E7D4F81CC023
:105390004FF6EF799C4546D1082819D005DC58B165
:1053A00001280CD0042875D10DE0102815D0202834
:1053B00035D040286ED134E0FDF7CEFC01E0FDF79A
:1053C000DDFC014610E06846FCF75CFD01990BE04E
:1053D00003A8FCF7F9FD049906E01068800604D5DF
:1053E0001068C0F3C100C140C1B1636A606838F899
:1053F0001330B1FBF3F1490000E04BE001EB500149
:10540000B1FBF0F0A0F11001494543D84FF6F0731D
:105410002168C0F342021840104343E043E039469C
:10542000E3E71946E1E7082819D005DC58B101285F
:105430000CD004282ED10DE0102815D020282BD018
:10544000402827D12AE0FDF787FC01E0FDF796FC14
:10545000014610E06846FCF715FD01990BE003A832
:10546000FCF7B2FD049906E01068800604D51068C8
:10547000C0F3C100C140B1B1636A606838F813304D
:10548000B1FBF3F101EB5001B1FBF0F0A0F1100121
:10549000494505D9012506E03946EDE71946EBE710
:1054A000216880B2C8600120A4F86A00A4F86800EE
:1054B00028466667A66707B0BDE8F083F369FFCFAB
:1054C000000C0058FFF4FF11001001405444025832
:1054D0000044004000480040004C004000500040A4
:1054E0000014014000780040007C00400090D00390
:1054F0005A77020800440258FFFC0F002DE9F047DC
:10550000994617460E460446089D4FF000082FE0C6
:10551000681C2DD0FCF7D0FBA0EB0900A84214D8E2
:105520009DB120680168490722D5C169C9430907AF
:105530000DD4082505622046FFF7E0FDC4F8905021
:10554000012084F88480BDE8F0870320FBE7C06970
:10555000C04300050CD421684FF400600862204667
:10556000FFF7CCFD2021C4F8901084F88480ECE78C
:105570002068C06936EA000004D00020B842C7D0D5
:105580000020E0E70120F9E7FEE700000FB4054B3B
:1055900010B503A9044A029801F07AFC10BC5DF82A
:1055A00014FB00008D0701084402002409070028AD
:1055B0004FEA116104DB00F1E02080F8001470472D
:1055C00000F00F0000F1E02080F8141D704702E0A9
:1055D00008C8121F08C1002AFAD17047704700207E
:1055E00001E001C1121F002AFBD1704770B50025F0
:1055F00004466FF02F0608E0206805EB8502411C89
:10560000216006EB4202007885182068007800F0DF
:1056100004F80028F0D1284670BD3038092801D898
:1056200001207047002070470848402110B500F065
:105630005FFF074800220A211CF066FF054CA060AE
:1056400002F0FEF80020207010BD000024060024A7
:10565000057900088C01002470B5B1F90040B2F959
:1056600000309C4200DD23460380B1F90250B2F9BC
:105670000240A54200DD2C464480B1F90460B2F935
:105680000450AE4200DA35468580B1F90610B2F911
:105690000620914200DB1146C180AB424FF0010071
:1056A00001DC8C4200DD002070BDF8B50D46B1F97B
:1056B00000100446B0F900001646884247DBB4F9F2
:1056C0000210B5F90220914241DBB4F90410B5F99A
:1056D000042091423BDCB4F90610B5F90620914252
:1056E00035DC96B3ADF80000324660886946ADF807
:1056F0000200284600F099F8002827D0A0883246FA
:10570000ADF8000069466088ADF80200284600F058
:105710008CF800281AD020883246ADF8000069467F
:10572000E088ADF80200284600F07FF800280DD090
:10573000A0883246ADF800006946E088ADF8020066
:10574000284600F072F8002800D00120F8BD0020A3
:10575000F8BDB0F90020B1F904309A4213DCB0F979
:105760000420B1F900309A420DDBB0F90220B1F902
:1057700006309A4207DCB0F90600B1F902108842FF
:1057800001DB0120704700207047F8B50D46B1F9E4
:1057900000100446B0F904001646884243DBB4F911
:1057A0000600B5F9021088423DDBB4F90000B5F9F6
:1057B0000410884237DCB4F90210B5F90620914292
:1057C00031DC76B3ADF80000324660886946ADF84A
:1057D0000200284600F029F818BBA0883246ADF830
:1057E000000069466088ADF80200284600F01DF808
:1057F000B8B920883246ADF800006946E088ADF8B7
:105800000200284600F011F858B9A0883246ADF8D9
:1058100000006946E088ADF80200284600F005F86F
:1058200008B10020F8BD0120F8BD2DE9FC41054676
:10583000B1F900000E461446B5F9001088423ADB73
:10584000B5F90470B84236DCB6F90200B5F9023099
:10585000984230DBB5F9062090422CDC002C75DD37
:10586000781AD21A401C521C00B212B200EBD0704F
:1058700002EBD27240105210904200DB104684427C
:1058800000DD0446ADF8001028880022314620448F
:10589000ADF804006888ADF8020068882044ADF8CF
:1058A00006006846FFF7C1FF40B1BDF80400204480
:1058B000ADF804003FE00020BDE8FC81E88800224C
:1058C0003146001BADF80200E888ADF806006846D6
:1058D000FFF7ABFF28B1BDF804002044ADF8040089
:1058E00011E0A88800223146001BADF80000A8880E
:1058F000ADF804006846FFF798FF50B1BDF800000E
:10590000001BADF80000BDF80200001BADF802005E
:1059100016E068880022ADF802003146688820440D
:10592000ADF806006846FFF780FF70B1BDF80000D3
:10593000001BADF80000BDF806002044ADF80600DD
:10594000314668461AF052F9B6E7FFE70120B3E79F
:1059500010B5B1F90040B2F900309C4200DA23469C
:105960000380B1F90240B2F902309C4200DA2346CA
:105970004380B1F90440B2F904309C4200DD234673
:105980008380B1F90610B2F90620914200DC11467D
:10599000C18010BDFEB505461CF064FD784C0026A4
:1059A000074600960DB1E86801E00FF047FF606020
:1059B00000691AF0B7F86068406908B11AF0B2F8E7
:1059C0006068C0691AF0AEF86068006A1AF0AAF858
:1059D00060680169F1B31AF035FB1AF0AFFA60683C
:1059E000B0F8501199B30168097C890715D50FF0FB
:1059F00083FF401E05B260680FF038FF401E00951F
:105A000003B2002201A811460DF0ACFB60680168EA
:105A10008A6B01A9516004F033FA60684FF4807119
:105A2000303015F07BFE6068202100F5987015F08D
:105A300075FE6068A0F8506138461CF00DFD0090BE
:105A400060680068436A13B122680099984715F0AE
:105A5000B3FC00E007E000F0CDF800F09FF8494DFE
:105A60006F691FB149E0A0F85061FEBD0FF0E6FE7E
:105A70000FF012FF14F09AFB002207467F2119F065
:105A800077FF0022114610460FF00AF8019000221D
:105A9000BDF80410384619F059FFFF221146104690
:105AA0000EF0FEFF01900022BDF80410384619F0F8
:105AB000C3FF00223846032119F0B2FF0022384606
:105AC000032119F09BFF00223846032119F09CFFA7
:105AD00000223846032119F09DFF00223846032199
